{
  "contractName": "ToDo",
  "abi": [
    {
      "anonymous": false,
      "inputs": [
        {
          "indexed": false,
          "internalType": "uint256",
          "name": "id",
          "type": "uint256"
        },
        {
          "indexed": false,
          "internalType": "uint256",
          "name": "date",
          "type": "uint256"
        },
        {
          "indexed": false,
          "internalType": "string",
          "name": "content",
          "type": "string"
        },
        {
          "indexed": false,
          "internalType": "bool",
          "name": "done",
          "type": "bool"
        }
      ],
      "name": "TaskCreated",
      "type": "event"
    },
    {
      "anonymous": false,
      "inputs": [
        {
          "indexed": false,
          "internalType": "uint256",
          "name": "id",
          "type": "uint256"
        }
      ],
      "name": "TaskDeleted",
      "type": "event"
    },
    {
      "anonymous": false,
      "inputs": [
        {
          "indexed": false,
          "internalType": "uint256",
          "name": "id",
          "type": "uint256"
        },
        {
          "indexed": false,
          "internalType": "bool",
          "name": "done",
          "type": "bool"
        },
        {
          "indexed": false,
          "internalType": "uint256",
          "name": "dateComplete",
          "type": "uint256"
        }
      ],
      "name": "TaskStatusToggled",
      "type": "event"
    },
    {
      "inputs": [
        {
          "internalType": "string",
          "name": "_content",
          "type": "string"
        }
      ],
      "name": "createTask",
      "outputs": [],
      "stateMutability": "nonpayable",
      "type": "function"
    },
    {
      "inputs": [
        {
          "internalType": "uint256",
          "name": "id",
          "type": "uint256"
        }
      ],
      "name": "getTask",
      "outputs": [
        {
          "internalType": "uint256",
          "name": "",
          "type": "uint256"
        },
        {
          "internalType": "uint256",
          "name": "",
          "type": "uint256"
        },
        {
          "internalType": "string",
          "name": "",
          "type": "string"
        },
        {
          "internalType": "bool",
          "name": "",
          "type": "bool"
        },
        {
          "internalType": "uint256",
          "name": "",
          "type": "uint256"
        }
      ],
      "stateMutability": "view",
      "type": "function",
      "constant": true
    },
    {
      "inputs": [
        {
          "internalType": "uint256",
          "name": "id",
          "type": "uint256"
        }
      ],
      "name": "getTaskFixtures",
      "outputs": [
        {
          "internalType": "uint256",
          "name": "",
          "type": "uint256"
        },
        {
          "internalType": "uint256",
          "name": "",
          "type": "uint256"
        },
        {
          "internalType": "string",
          "name": "",
          "type": "string"
        },
        {
          "internalType": "bool",
          "name": "",
          "type": "bool"
        }
      ],
      "stateMutability": "view",
      "type": "function",
      "constant": true
    },
    {
      "inputs": [],
      "name": "getTaskIds",
      "outputs": [
        {
          "internalType": "uint256[]",
          "name": "",
          "type": "uint256[]"
        }
      ],
      "stateMutability": "view",
      "type": "function",
      "constant": true
    },
    {
      "inputs": [
        {
          "internalType": "uint256",
          "name": "id",
          "type": "uint256"
        }
      ],
      "name": "toggleDone",
      "outputs": [],
      "stateMutability": "nonpayable",
      "type": "function"
    },
    {
      "inputs": [
        {
          "internalType": "uint256",
          "name": "id",
          "type": "uint256"
        }
      ],
      "name": "deleteTask",
      "outputs": [],
      "stateMutability": "nonpayable",
      "type": "function"
    }
  ],
  "bytecode": "0x60806040526001805534801561001457600080fd5b50610dfa806100246000396000f3fe608060405234801561001057600080fd5b50600436106100625760003560e01c8063111002aa146100675780631d65e77e14610083578063560f3192146100b7578063bcd14805146100d3578063d81ef739146100f1578063f885f0d91461010d575b600080fd5b610081600480360381019061007c9190610894565b610140565b005b61009d600480360381019061009891906108d5565b61026b565b6040516100ae959493929190610add565b60405180910390f35b6100d160048036038101906100cc91906108d5565b6103d2565b005b6100db610571565b6040516100e891906109fd565b60405180910390f35b61010b600480360381019061010691906108d5565b6105c9565b005b610127600480360381019061012291906108d5565b6106e3565b6040516101379493929190610a91565b60405180910390f35b60004290506040518060a00160405280600154815260200182815260200183815260200160001515815260200160008152506000806001548152602001908152602001600020600082015181600001556020820151816001015560408201518160020190805190602001906101b6929190610734565b5060608201518160030160006101000a81548160ff02191690831515021790555060808201518160040155905050600260015490806001815401808255809150506001900390600052602060002001600090919091909150557f958b88abf2e68af5e9bc0888fd4c508aaa67194884617ab2b45471e4de2b6949600154828460006040516102479493929190610a91565b60405180910390a16001600081548092919061026290610c9d565b91905055505050565b60008060606000808560008060008381526020019081526020016000206000015414156102cd576040517f08c379a00000000000000000000000000000000000000000000000000000000081526004016102c490610a1f565b60405180910390fd5b86600080898152602001908152602001600020600101546000808a81526020019081526020016000206002016000808b815260200190815260200160002060030160009054906101000a900460ff166000808c81526020019081526020016000206004015482805461033e90610c3a565b80601f016020809104026020016040519081016040528092919081815260200182805461036a90610c3a565b80156103b75780601f1061038c576101008083540402835291602001916103b7565b820191906000526020600020905b81548152906001019060200180831161039a57829003601f168201915b50505050509250955095509550955095505091939590929450565b80600080600083815260200190815260200160002060000154141561042c576040517f08c379a000000000000000000000000000000000000000000000000000000000815260040161042390610a1f565b60405180910390fd5b600080838152602001908152602001600020600080820160009055600182016000905560028201600061045f91906107ba565b6003820160006101000a81549060ff02191690556004820160009055505060005b6002805490508110156105355782600282815481106104c8577f4e487b7100000000000000000000000000000000000000000000000000000000600052603260045260246000fd5b906000526020600020015414156105225760028181548110610513577f4e487b7100000000000000000000000000000000000000000000000000000000600052603260045260246000fd5b90600052602060002001600090555b808061052d90610c9d565b915050610480565b507fd078b251d950cc55c44340be1db732337ef4939a76e1367ee271ad2cb19c46af826040516105659190610a3f565b60405180910390a15050565b606060028054806020026020016040519081016040528092919081815260200182805480156105bf57602002820191906000526020600020905b8154815260200190600101908083116105ab575b5050505050905090565b806000806000838152602001908152602001600020600001541415610623576040517f08c379a000000000000000000000000000000000000000000000000000000000815260040161061a90610a1f565b60405180910390fd5b600080600084815260200190815260200160002090508060030160009054906101000a900460ff16158160030160006101000a81548160ff0219169083151502179055508060030160009054906101000a900460ff16610684576000610686565b425b81600401819055507fcb1ceae718a6ae11d5daf00e292e318717e0acf2d326ed670df0e5ff67ba5000838260030160009054906101000a900460ff1683600401546040516106d693929190610a5a565b60405180910390a1505050565b60008060606000844260006040518060400160405280600981526020017f54657374205461736b00000000000000000000000000000000000000000000008152509093509350935093509193509193565b82805461074090610c3a565b90600052602060002090601f01602090048101928261076257600085556107a9565b82601f1061077b57805160ff19168380011785556107a9565b828001600101855582156107a9579182015b828111156107a857825182559160200191906001019061078d565b5b5090506107b691906107fa565b5090565b5080546107c690610c3a565b6000825580601f106107d857506107f7565b601f0160209004906000526020600020908101906107f691906107fa565b5b50565b5b808211156108135760008160009055506001016107fb565b5090565b600061082a61082584610b5c565b610b37565b90508281526020810184848401111561084257600080fd5b61084d848285610bf8565b509392505050565b600082601f83011261086657600080fd5b8135610876848260208601610817565b91505092915050565b60008135905061088e81610dad565b92915050565b6000602082840312156108a657600080fd5b600082013567ffffffffffffffff8111156108c057600080fd5b6108cc84828501610855565b91505092915050565b6000602082840312156108e757600080fd5b60006108f58482850161087f565b91505092915050565b600061090a83836109df565b60208301905092915050565b600061092182610b9d565b61092b8185610bc0565b935061093683610b8d565b8060005b8381101561096757815161094e88826108fe565b975061095983610bb3565b92505060018101905061093a565b5085935050505092915050565b61097d81610be2565b82525050565b600061098e82610ba8565b6109988185610bd1565b93506109a8818560208601610c07565b6109b181610d73565b840191505092915050565b60006109c9601883610bd1565b91506109d482610d84565b602082019050919050565b6109e881610bee565b82525050565b6109f781610bee565b82525050565b60006020820190508181036000830152610a178184610916565b905092915050565b60006020820190508181036000830152610a38816109bc565b9050919050565b6000602082019050610a5460008301846109ee565b92915050565b6000606082019050610a6f60008301866109ee565b610a7c6020830185610974565b610a8960408301846109ee565b949350505050565b6000608082019050610aa660008301876109ee565b610ab360208301866109ee565b8181036040830152610ac58185610983565b9050610ad46060830184610974565b95945050505050565b600060a082019050610af260008301886109ee565b610aff60208301876109ee565b8181036040830152610b118186610983565b9050610b206060830185610974565b610b2d60808301846109ee565b9695505050505050565b6000610b41610b52565b9050610b4d8282610c6c565b919050565b6000604051905090565b600067ffffffffffffffff821115610b7757610b76610d44565b5b610b8082610d73565b9050602081019050919050565b6000819050602082019050919050565b600081519050919050565b600081519050919050565b6000602082019050919050565b600082825260208201905092915050565b600082825260208201905092915050565b60008115159050919050565b6000819050919050565b82818337600083830152505050565b60005b83811015610c25578082015181840152602081019050610c0a565b83811115610c34576000848401525b50505050565b60006002820490506001821680610c5257607f821691505b60208210811415610c6657610c65610d15565b5b50919050565b610c7582610d73565b810181811067ffffffffffffffff82111715610c9457610c93610d44565b5b80604052505050565b6000610ca882610bee565b91507fffffffffffffffffffffffffffffffffffffffffffffffffffffffffffffffff821415610cdb57610cda610ce6565b5b600182019050919050565b7f4e487b7100000000000000000000000000000000000000000000000000000000600052601160045260246000fd5b7f4e487b7100000000000000000000000000000000000000000000000000000000600052602260045260246000fd5b7f4e487b7100000000000000000000000000000000000000000000000000000000600052604160045260246000fd5b6000601f19601f8301169050919050565b7f5265766572743a207461736b4964206e6f7420666f756e640000000000000000600082015250565b610db681610bee565b8114610dc157600080fd5b5056fea264697066735822122076e254dba4e8f7ae9f72504b8414c7521404274d73d8ae52bd7d4876930d865164736f6c63430008030033",
  "immutableReferences": {},
  "source": "// SPDX-License-Identifier: MIT\npragma solidity ^0.8.3;\n\ncontract ToDo {\n    struct Task {\n        uint256 id;\n        uint256 date;\n        string content;\n        bool done;\n        uint256 dateComplete;\n    }\n\n    event TaskCreated(uint256 id, uint256 date, string content, bool done);\n\n    event TaskStatusToggled(uint256 id, bool done, uint256 dateComplete);\n\n    event TaskDeleted(uint256 id);\n\n    // Task[] tasks;\n    // this consume gas when loop through entries in getTask\n    // so list should be avoided\n\n    mapping(uint256 => Task) private tasks;\n\n    // mapping default uint value is 0 when key missing\n    // therefore avoid initialize with default value\n    // (otherwise modifier taskExists will not work)\n    uint256 private lastTaskId = 1;\n    uint256[] private taskIds;\n\n    function createTask(string memory _content) public {\n        uint256 theNow = block.timestamp;\n\n        tasks[lastTaskId] = Task(lastTaskId, theNow, _content, false, 0);\n        taskIds.push(lastTaskId);\n\n        emit TaskCreated(lastTaskId, theNow, _content, false);\n        lastTaskId++;\n    }\n\n    function getTask(uint256 id)\n        public\n        view\n        taskExists(id)\n        returns (\n            uint256,\n            uint256,\n            string memory,\n            bool,\n            uint256\n        )\n    {\n        return (\n            id,\n            tasks[id].date,\n            tasks[id].content,\n            tasks[id].done,\n            tasks[id].dateComplete\n        );\n    }\n\n    // return dummy data for test\n    function getTaskFixtures(uint256 id)\n        public\n        view\n        returns (\n            uint256,\n            uint256,\n            string memory,\n            bool\n        )\n    {\n        return (id, block.timestamp, \"Test Task\", false);\n    }\n\n    function getTaskIds() public view returns (uint256[] memory) {\n        return taskIds;\n    }\n\n    // function getTasks() public view returns (Task[] memory) {\n    //     return tasks;\n    // }\n\n    function toggleDone(uint256 id) public taskExists(id) {\n        Task storage task = tasks[id];\n        task.done = !task.done;\n        task.dateComplete = task.done ? block.timestamp : 0;\n\n        emit TaskStatusToggled(id, task.done, task.dateComplete);\n    }\n\n    // clear each data (you cannot delete mapping in Solidity)\n    // https://stackoverflow.com/questions/48515633\n    function deleteTask(uint256 id) public taskExists(id) {\n        delete tasks[id];\n\n        for (uint256 i = 0; i < taskIds.length; i++) {\n            if (taskIds[i] == id) {\n                // this update the element to 0\n                delete taskIds[i];\n            }\n        }\n\n        emit TaskDeleted(id);\n    }\n\n    modifier taskExists(uint256 id) {\n        if (tasks[id].id == 0) {\n            revert(\"Revert: taskId not found\");\n        }\n        _;\n    }\n}\n",
  "sourcePath": "/Users/ken/Documents/github/kenfj/solidity-todo-example/contracts/ToDo.sol",
  "compiler": {
    "name": "solc",
    "version": "0.8.3+commit.8d00100c.Emscripten.clang"
  },
  "schemaVersion": "3.4.1",
  "updatedAt": "2021-06-04T15:18:01.495Z",
  "networkType": "ethereum",
  "devdoc": {
    "kind": "dev",
    "methods": {},
    "version": 1
  },
  "userdoc": {
    "kind": "user",
    "methods": {},
    "version": 1
  }
}